:1000000000308A001B28000025308400831300087C
:10001000031918280130F800F701F70B0D28F80B29
:100020000C284A30F700F70B13281628800B0A28F3
:100030008A110A123C2803081F39830083161F14F3
:100040009F141F159F1107309C0083138312A20178
:10005000A101A30183161F109F141F159F151F13C5
:1000600083121F179F1783169F1783121F140230C6
:10007000A400FA30A5000428A40B39280030F800A9
:100080001F08C73978049F00A308031D4B28A3014C
:100090001F1DA30A44281F151F194C2883161E086C
:1000A0008312A1001E08A200A208031D60282108D7
:1000B000633C031C60288316061083120610642814
:0C00C00083160610831206143728630014
:02400E00313F40
:00000001FF
;PIC16F877A
;CRC=4824  CREATED="05-Dec-22 20:17"
